:0200000460009A
:100000004643464200000156000000000103030081
:1000100000000000000000000000000000000000E0
:1000200000000000000000000000000000000000D0
:1000300000000000000000000000000000000000C0
:1000400000000000010408000000000000000000A3
:100050000000200000000000000000000000000080
:100060000000000000000000000000000000000090
:100070000000000000000000000000000000000080
:10008000EB04180A063204260000000000000000FD
:10009000050404240000000000000000000000002F
:1000A0000000000000000000000000000000000050
:1000B0000604000000000000000000000000000036
:1000C0000000000000000000000000000000000030
:1000D00020041808000000000000000000000000DC
:1000E0000000000000000000000000000000000010
:1000F0000000000000000000000000000000000000
:10010000D8041808000000000000000000000000F3
:100110000204180804200000000000000000000095
:1001200000000000000000000000000000000000CF
:10013000600400000000000000000000000000005B
:1001400000000000000000000000000000000000AF
:10015000000000000000000000000000000000009F
:10016000000000000000000000000000000000008F
:10017000000000000000000000000000000000007F
:10018000000000000000000000000000000000006F
:10019000000000000000000000000000000000005F
:1001A000000000000000000000000000000000004F
:1001B000000000000000000000000000000000003F
:1001C000000100000010000001000000000000001D
:1001D000000001000000000000000000000000001E
:1001E000000000000000000000000000000000000F
:1001F00000000000000000000000000000000000FF
:10020000FFFFFFFFFFFFFFFFFFFFFFFFFFFFFFFFFE
:10021000FFFFFFFFFFFFFFFFFFFFFFFFFFFFFFFFEE
:10100000D100204321160060000000000000000015
:10101000201000600010006000600260000000000E
:1010200000000060006C020000000000FFFFFFFFF6
:10103000FFFFFFFFFFFFFFFFFFFFFFFFFFFFFFFFC0
:10104000FFFFFFFFFFFFFFFFFFFFFFFFFFFFFFFFB0
:10105000FFFFFFFFFFFFFFFFFFFFFFFFFFFFFFFFA0
:10106000FFFFFFFFFFFFFFFFFFFFFFFFFFFFFFFF90
:10140000884207D0904205D251F8043B40F8043B93
:101410008242F9D8704700BF884204D2002340F8C6
:10142000043B8142FBD870472DE9884800F0CEF993
:101430000824604B604AC3F8544160496048FFF794
:10144000DFFF604A60496148FFF7DAFF60496148A1
:10145000FFF7E2FF604C4FF0E0214FF470000023F3
:101460005E4AC1F8880D44F823200133B02BFAD12D
:101470005B4B80215B4A03F8011B9342FBD14FF089
:10148000E0254C4E4FF08039DFF888B1DFF888A1B5
:101490004FF0FF31C5F8084D0027C6F80491C6F893
:1014A00000B1C6F8F490C6F8F0A0D5F8243DDFF8F6
:1014B0006C8143F4E0234C4AC5F8243DD8F81C3035
:1014C00023F07F0343F04003C8F81C30D8F82430E1
:1014D00023F07F0343F04003C8F824309166D166BF
:1014E0001167516700F07AF9404B4149A363414BC2
:1014F000E36363236B610323AF612B613E4BC5F84C
:10150000203DD5F8FC3D43F08073C5F8FC3D3B4BD6
:101510001A6842F001021A605B680B6000F0DAF9A9
:10152000C6F804913648C6F800B1C6F8F490C6F87B
:10153000F0A000F07DFBD8F86C10324B324A41F439
:101540004051C8F86C101F60C3F80871C3F81871D7
:10155000C3F82871C3F83871936BDB0708D442F6DF
:1015600015632A4951651365936B43F00103936337
:10157000254A274C936843F00113936000F00EFB5B
:1015800000F04AFB00F0D4F900F022F92368132B95
:10159000FCD900F065FA2368B3F5967FFBD300F021
:1015A0001BF900F017F900F03FFB00F031FB30BFF2
:1015B000FDE700BF00800D40D80402004C1E006013
:1015C00000000000C03A0020282302600000002034
:1015D000409D0020C03A0020003800203D4A000015
:1015E00000E400E0A0E400E000C00A40655E000006
:1015F000209C0020695E000000002020001000E018
:101600000046C3230040084000400D400000C05683
:10161000249C00201B1018200C0D111300C00F403B
:10162000074B4FF42A01074A07485A641864074ACF
:1016300099639546BFF34F8FBFF36F8FFFF7F4FEAB
:1016400000C00A40FFABAAAA0700200000800520C6
:1016500043690A4A03EB011010B4037A084C02EB09
:101660000313D3E901321460C2681A6003690BB135
:1016700042691A605DF8044B704700BF6C1000208F
:1016800061F801004369027E03EB021292F808C080
:101690008C451CD01A7AFF2A19D0914210B5044605
:1016A00016D01A7EFF2A06D00121D3E90023126842
:1016B0001A4201D1217610BD064B0522204603EBCC
:1016C0000C135B681A60FFF7C3FF2176F3E77047DE
:1016D0000021EAE76C10002043690A4A03EB01107D
:1016E00010B490F82830084C02EB0313D3E9013210
:1016F0001460C26A1A60036B0BB1426B1A605DF82A
:10170000044B70476C10002061F801004369427E71
:1017100003EB021292F828C08C451ED093F82820C3
:10172000FF2A1AD0914210B5044617D093F83820FA
:10173000FF2A06D00121D3E9002312681A4201D101
:10174000617610BD064B0522204603EB0C135B6847
:101750001A60FFF7C1FF6176F3E770470021EAE7FF
:101760006C100020164942698B6B23F47C0343F410
:10177000802370B58B630446124DD2E900130A68CA
:101780001A4303690A60022200211A610E4A196194
:101790009A6401225A629D624FF43035DD624FF047
:1017A00001159E6C1E6519629D651A61017EFFF729
:1017B0004FFF617E2046BDE87040FFF78DBF00BF40
:1017C00000C00F40B80B05053B372819704700BF14
:1017D000704700BF704700BF00BF704710B44FF0A4
:1017E000E023002110242B48C3F8941DC3F89C4D1E
:1017F0001124C3F8A00D2848C3F89C4D1224C3F847
:10180000A00D2648C3F89C4D254AC3F8A00D254CD1
:1018100042F015022448C3F89C4DC3F8A00D234C98
:101820002348C3F89C4DC3F8A00D224CC3F89C2D4F
:101830002148224AC3F8A04DC3F89C0DC3F8A02D3F
:1018400002F5A0221E4C0C321E48C3F89C4DC3F872
:10185000A02D1D4AC3F89C0D1C4CC3F8A02D0122DD
:101860001B48C3F89C4DC3F8A00DC3F8942DBFF3DB
:101870004F8FBFF36F8FC3F8501FBFF34F8FBFF36E
:101880006F8FD3F8142D5DF8044B42F44032C3F847
:10189000142D70473F0000102500080309001000B8
:1018A000409D0020130020002100020714000020AA
:1018B00025000813090000101600202027000B1334
:1018C00017000040180000602F000B07190000707F
:1018D0002F000B13F0B4154A40274FF480314FF41A
:1018E00080564FF400554FF4404443F242001369D0
:1018F00013F0020F0ED113F4005F0FD013F4805FCA
:101900000ED0002BF3DA13F4803F0BD15B060BD51E
:10191000F0BC7047946151619061E8E75561E6E77A
:101920005661E4E79161E2E75761E0E700800D402E
:101930003F4A03203F49F3EE095AD2F880304FF076
:10194000000C9FED3D6A23F001039FED3C5A30B43B
:10195000C2F88030C2F89000D1F8E010384DCBB218
:10196000384C39482B6007EE903A0B0DC1F30B2130
:10197000F8EEE77A06EE903A07EE101A334BB8EE1F
:10198000C77A2160F8EEE66A314937EEC66A37EE6B
:10199000C55A76EEC76A77EEE57A26EE266AC3ED7B
:1019A000006A25EE265AD2F8803067EEA64AC0EDCE
:1019B000007AC6EE275A274885EE276AC4EEA76A42
:1019C00075EE875AFCEEE55A36EE076A15EE904A38
:1019D000BCEEC66A43EA045376EE877AC2F88030DA
:1019E00016EE103AD2F89041FCEEE77A01EA034194
:1019F000214317EE903AC2F89011C3F30B03D2F8CB
:101A000090110B431449C2F89031D2F8803043F062
:101A10000203C2F88030114B80F840C0C1F8403159
:101A20004FF0E023012230BCC3F80821704700BF0B
:101A300000810D4000441F400000AA420000B44253
:101A40009C9B0020989B0020A09B0020A49B002032
:101A50000000FF0F00E400E000380020214C0000EF
:101A6000314B40F6617210B5C3F8202140F20444B6
:101A700000F0D6F82D4A2E49D2F880302D4843F098
:101A80000303C2F880302C4BC1F8604102681A424F
:101A900003D1D1F8A8319A071BD0254A4FF0004155
:101AA000244B5963D2F8403143F00203C2F840316D
:101AB000D2F840319B07FBD44FF400304FF0E021C7
:101AC0001C4B4FF00042C1F88C0219209A6300F0C1
:101AD00097F8184A4FF08040154C002190630A2077
:101AE000164B11604FF42072C4F8A801184600F09C
:101AF0008BF84FF4800203464FF4810040F243110B
:101B00001860C4F858311A640D4B0E4AC4F84811D5
:101B1000C3F804224FF0E0224FF400310123C2F851
:101B20000C11C4F8403110BD00800D4000C00F40C2
:101B300000002E4000900D40001C1E000000002000
:101B400000380020094E000008B50E4B1B6E9B07A5
:101B500000D4FBBE72B60C4B00200C4AC3F8400107
:101B600003F160430A49A3F55F2311649D46BFF367
:101B70004F8F4FF400130748074ADB6902609B68E8
:101B8000984700BF00441F4000002E4000C00A409C
:101B90000300200000802020000012EB104BA0204A
:101BA000104AD96E41F4403110B4D96640F237641E
:101BB000D96E41F44071D96654649064936C1B06ED
:101BC000FCD4094A40F23761A02351649364936CBA
:101BD00013F08003FBD1054A13705DF8044B704786
:101BE00000C00F4000400C4000800C40119D0020C0
:101BF000F8B500BFF8BC08BC9E4670470000000066
:101C00005FF800F0D14000005FF800F09D80010017
:101C10005FF800F0B14300005FF800F02D490000CC
:101C20005FF800F0795500005FF800F0D1920100F4
:101C30005FF800F0E13D000045010000512C00007C
:101C400039340000E95E000041790000BDDE00008B
:101C500070C00F40C0000000120000001300000020
:101C6000D0841F4001000000FF000000FF000000C2
:101C7000000000000000000013000000130000003E
:101C8000CC841F4001000000FF000000FF000000A6
:101C900000000000000000001C00000015340000DF
:101CA00070C00F40000C0000110000001100000087
:101CB000E0841F4002000000240000001200000029
:101CC000E0841F400100000010000000110000002F
:101CD000DC841F400200000025000000120000000C
:101CE000DC841F40010000001E00000021340000C1
:101CF00080C00F4000000003190000001000000029
:101D0000E8841F4001000000FF000000FF00000009
:101D1000000000000000000018000000100000009B
:101D2000E4841F4001000000FF000000FF000000ED
:101D300000000000000000001F0000002D34000023
:101D40001603550053004200200053006500720046
:101D5000690061006C000000180354006500650014
:101D60006E00730079006400750069006E006F00FA
:101D70000403090409026200030100C032080B00D9
:101D80000202020100090400000102020100052410
:101D900000100105240101010424020605240600A7
:101DA000010705820310001009040100020A000067
:101DB00000070503024000000705840240000009F7
:101DC00004020002FF6AFF000705810240000107CC
:101DD000050102400001000009026200030100C089
:101DE00032080B0002020201000904000001020295
:101DF000010005240010010524010101042402064C
:101E000005240600010705820310000509040100EE
:101E1000020A000000070503020002000705840211
:101E20000002000904020002FF6AC70007058102E0
:101E30000002010705010200020100000A0600027B
:0C1E4000EF020140010000000000000063
:101E4C000000000000000000000000000000000086
:101E5C000000000000000000000000000000000076
:101E6C00F8B54FF084439D695A6915400DD0244F45
:101E7C0001269D6195FAA5F4B4FA84F457F8243040
:101E8C0006FA04F49847A543F4D11E4B9D695A6990
:101E9C0015400DD01C4F01269D6195FAA5F4B4FA9E
:101EAC0084F457F8243006FA04F49847A543F4D187
:101EBC00164B9D695A6915400DD0154F01269D6131
:101ECC0095FAA5F4B4FA84F457F8243006FA04F41D
:101EDC009847A543F4D10F4B9D695A6915400DD015
:101EEC000D4F01269D6195FAA5F4B4FA84F457F8C8
:101EFC00243006FA04F49847A543F4D1F8BD00BF8A
:101F0C00A030002000400042203100200080004220
:101F1C00A031002000C00042203200200348044BB6
:101F2C00834202D0034B03B118477047C03A0020DC
:101F3C00C03A0020000000000548064B1B1AD90FC0
:101F4C0001EBA301491002D0034B03B118477047B2
:101F5C00C03A0020C03A00200000000010B5064C2A
:101F6C00237843B9FFF7DAFF044B13B10448AFF3FE
:101F7C0000800123237010BD888C0020000000001D
:101F8C00006C026008B5044B1BB104490448AFF364
:101F9C000080BDE80840CFE7000000008C8C0020DA
:101FAC00006C02600000000010B58EB0044600F218
:101FBC008F100DF11E0307AA0DF11A0103F0E0F9C1
:101FCC00BDF91A3094ED5F4A04F5DC7E05EE103A4B
:101FDC00BDF91C30B7EEC44A0DF1200C06EE103AD8
:101FEC00BDF91E30B8EEC55B07EE103AB8EEC66B05
:101FFC00B8EEC77B25EE045B26EE046B27EE047B64
:10200C009FED0F3B25EE035B26EE036B27EE037B68
:10201C0084ED6E5B84ED706B84ED727BBEE80F001B
:10202C00ACE80F009EE803009DED0A1B9DED080B2C
:10203C008CE803009DED0C2B0EB010BDAFF30080AF
:10204C00399D52A246DF913F08B50D2004F008F8E7
:10205C0001460D20B1FA81F1490903F0D7FF024A7C
:10206C00024B12681A6008BD249C00202C9B002097
:10207C000021007C04F09EBA38B504460D46007A67
:10208C00012103F0C3FF207B002103F0BFFF207C64
:10209C0085EAE571A1EBE571BDE8384004F08ABA38
:1020AC0038B504460D46007A002103F0AFFF207BC3
:1020BC00012103F0ABFF207C85EAE571A1EBE57112
:1020CC00BDE8384004F076BA10B58EB0044600F581
:1020DC00C0700DF11E0307AA0DF11A0103F030F9BF
:1020EC00BDF91A3094ED5E3A04F5D07E05EE103A47
:1020FC00BDF91C30B7EEC33A94ED524A06EE103AD5
:10210C00BDF91E30B8EEC55B0DF1200C07EE103A90
:10211C00B8EEC66BB7EEC44AB8EEC77B25EE035BD0
:10212C0026EE036B27EE037B25EE045B26EE046B99
:10213C0027EE047B84ED685B84ED6A6B84ED6C7B2D
:10214C00BEE80F00ACE80F009EE803009DED0A1BF3
:10215C009DED080B8CE803009DED0C2B0EB010BD13
:10216C0010B5044682B00C4820F0C6F804F5C070D7
:10217C00019003F0A7F8019803F0C8F808B902B071
:10218C0010BD04F28F10019003F09CF8019802B07E
:10219C00BDE8104003F0BAB8EC900020214B1A684F
:1021AC00D2E90010D3680968006810B4184294682A
:1021BC0001EA04012ED0137C03F00303D9B943F0D8
:1021CC0008039908013B11740D2B0BD8DFE803F0C1
:1021DC000D071C070A160D0D160A071C070D53696F
:1021EC00013B53615DF8044B704753695DF8044B38
:1021FC0001335361704743F00403E0E753695DF822
:10220C00044B023B5361704753695DF8044B023336
:10221C0053617047137C03F003030029D1D043F0C2
:10222C000403CEE7D8940020214B5A68D2E9001061
:10223C00D3680968006810B41842946801EA040174
:10224C002ED0137C03F00303D9B943F0080399088B
:10225C00013B11740D2B0BD8DFE803F00D071C07A5
:10226C000A160D0D160A071C070D5369013B536125
:10227C005DF8044B704753695DF8044B01335361AF
:10228C00704743F00403E0E753695DF8044B023BED
:10229C005361704753695DF8044B023353617047C7
:1022AC00137C03F003030029D1D043F00403CEE7E1
:1022BC00D8940020214B9A68D2E90010D3680968A1
:1022CC00006810B41842946801EA04012ED0137C03
:1022DC0003F00303D9B943F008039908013B1174C7
:1022EC000D2B0BD8DFE803F00D071C070A160D0D9C
:1022FC00160A071C070D5369013B53615DF8044B2B
:10230C00704753695DF8044B01335361704743F0D8
:10231C000403E0E753695DF8044B023B53617047DB
:10232C0053695DF8044B023353617047137C03F01F
:10233C0003030029D1D043F00403CEE7D894002046
:10234C00214BDA68D2E90010D3680968006810B430
:10235C001842946801EA04012ED0137C03F00303A5
:10236C00D9B943F008039908013B11740D2B0BD814
:10237C00DFE803F00D071C070A160D0D160A071CE3
:10238C00070D5369013B53615DF8044B704753696A
:10239C005DF8044B01335361704743F00403E0E7ED
:1023AC0053695DF8044B023B5361704753695DF808
:1023BC00044B023353617047137C03F00303002971
:1023CC00D1D043F00403CEE7D8940020214B1A69F6
:1023DC00D2E90010D3680968006810B418429468F8
:1023EC0001EA04012ED0137C03F00303D9B943F0A6
:1023FC0008039908013B11740D2B0BD8DFE803F08F
:10240C000D071C070A160D0D160A071C070D53693C
:10241C00013B53615DF8044B704753695DF8044B05
:10242C0001335361704743F00403E0E753695DF8EF
:10243C00044B023B5361704753695DF8044B023304
:10244C0053617047137C03F003030029D1D043F090
:10245C000403CEE7D8940020214B5A69D2E900102E
:10246C00D3680968006810B41842946801EA040142
:10247C002ED0137C03F00303D9B943F00803990859
:10248C00013B11740D2B0BD8DFE803F00D071C0773
:10249C000A160D0D160A071C070D5369013B5361F3
:1024AC005DF8044B704753695DF8044B013353617D
:1024BC00704743F00403E0E753695DF8044B023BBB
:1024CC005361704753695DF8044B02335361704795
:1024DC00137C03F003030029D1D043F00403CEE7AF
:1024EC00D8940020214B9A69D2E90010D36809686E
:1024FC00006810B41842946801EA04012ED0137CD1
:10250C0003F00303D9B943F008039908013B117494
:10251C000D2B0BD8DFE803F00D071C070A160D0D69
:10252C00160A071C070D5369013B53615DF8044BF8
:10253C00704753695DF8044B01335361704743F0A6
:10254C000403E0E753695DF8044B023B53617047A9
:10255C0053695DF8044B023353617047137C03F0ED
:10256C0003030029D1D043F00403CEE7D894002014
:10257C00214BDA69D2E90010D3680968006810B4FD
:10258C001842946801EA04012ED0137C03F0030373
:10259C00D9B943F008039908013B11740D2B0BD8E2
:1025AC00DFE803F00D071C070A160D0D160A071CB1
:1025BC00070D5369013B53615DF8044B7047536938
:1025CC005DF8044B01335361704743F00403E0E7BB
:1025DC0053695DF8044B023B5361704753695DF8D6
:1025EC00044B023353617047137C03F0030300293F
:1025FC00D1D043F00403CEE7D8940020214B1A6AC3
:10260C00D2E90010D3680968006810B418429468C5
:10261C0001EA04012ED0137C03F00303D9B943F073
:10262C0008039908013B11740D2B0BD8DFE803F05C
:10263C000D071C070A160D0D160A071C070D53690A
:10264C00013B53615DF8044B704753695DF8044BD3
:10265C0001335361704743F00403E0E753695DF8BD
:10266C00044B023B5361704753695DF8044B0233D2
:10267C0053617047137C03F003030029D1D043F05E
:10268C000403CEE7D8940020214B5A6AD2E90010FB
:10269C00D3680968006810B41842946801EA040110
:1026AC002ED0137C03F00303D9B943F00803990827
:1026BC00013B11740D2B0BD8DFE803F00D071C0741
:1026CC000A160D0D160A071C070D5369013B5361C1
:1026DC005DF8044B704753695DF8044B013353614B
:1026EC00704743F00403E0E753695DF8044B023B89
:1026FC005361704753695DF8044B02335361704763
:10270C00137C03F003030029D1D043F00403CEE77C
:10271C00D8940020214B9A6AD2E90010D36809683A
:10272C00006810B41842946801EA04012ED0137C9E
:10273C0003F00303D9B943F008039908013B117462
:10274C000D2B0BD8DFE803F00D071C070A160D0D37
:10275C00160A071C070D5369013B53615DF8044BC6
:10276C00704753695DF8044B01335361704743F074
:10277C000403E0E753695DF8044B023B5361704777
:10278C0053695DF8044B023353617047137C03F0BB
:10279C0003030029D1D043F00403CEE7D8940020E2
:1027AC00214BDA6AD2E90010D3680968006810B4CA
:1027BC001842946801EA04012ED0137C03F0030341
:1027CC00D9B943F008039908013B11740D2B0BD8B0
:1027DC00DFE803F00D071C070A160D0D160A071C7F
:1027EC00070D5369013B53615DF8044B7047536906
:1027FC005DF8044B01335361704743F00403E0E789
:10280C0053695DF8044B023B5361704753695DF8A3
:10281C00044B023353617047137C03F0030300290C
:10282C00D1D043F00403CEE7D8940020214B1A6B8F
:10283C00D2E90010D3680968006810B41842946893
:10284C0001EA04012ED0137C03F00303D9B943F041
:10285C0008039908013B11740D2B0BD8DFE803F02A
:10286C000D071C070A160D0D160A071C070D5369D8
:10287C00013B53615DF8044B704753695DF8044BA1
:10288C0001335361704743F00403E0E753695DF88B
:10289C00044B023B5361704753695DF8044B0233A0
:1028AC0053617047137C03F003030029D1D043F02C
:1028BC000403CEE7D8940020214B5A6BD2E90010C8
:1028CC00D3680968006810B41842946801EA0401DE
:1028DC002ED0137C03F00303D9B943F008039908F5
:1028EC00013B11740D2B0BD8DFE803F00D071C070F
:1028FC000A160D0D160A071C070D5369013B53618F
:10290C005DF8044B704753695DF8044B0133536118
:10291C00704743F00403E0E753695DF8044B023B56
:10292C005361704753695DF8044B02335361704730
:10293C00137C03F003030029D1D043F00403CEE74A
:10294C00D8940020214B9A6BD2E90010D368096807
:10295C00006810B41842946801EA04012ED0137C6C
:10296C0003F00303D9B943F008039908013B117430
:10297C000D2B0BD8DFE803F00D071C070A160D0D05
:10298C00160A071C070D5369013B53615DF8044B94
:10299C00704753695DF8044B01335361704743F042
:1029AC000403E0E753695DF8044B023B5361704745
:1029BC0053695DF8044B023353617047137C03F089
:1029CC0003030029D1D043F00403CEE7D8940020B0
:1029DC00214BDA6BD2E90010D3680968006810B497
:1029EC001842946801EA04012ED0137C03F003030F
:1029FC00D9B943F008039908013B11740D2B0BD87E
:102A0C00DFE803F00D071C070A160D0D160A071C4C
:102A1C00070D5369013B53615DF8044B70475369D3
:102A2C005DF8044B01335361704743F00403E0E756
:102A3C0053695DF8044B023B5361704753695DF871
:102A4C00044B023353617047137C03F003030029DA
:102A5C00D1D043F00403CEE7D8940020214B1A6C5C
:102A6C00D2E90010D3680968006810B41842946861
:102A7C0001EA04012ED0137C03F00303D9B943F00F
:102A8C0008039908013B11740D2B0BD8DFE803F0F8
:102A9C000D071C070A160D0D160A071C070D5369A6
:102AAC00013B53615DF8044B704753695DF8044B6F
:102ABC0001335361704743F00403E0E753695DF859
:102ACC00044B023B5361704753695DF8044B02336E
:102ADC0053617047137C03F003030029D1D043F0FA
:102AEC000403CEE7D8940020214B5A6CD2E9001095
:102AFC00D3680968006810B41842946801EA0401AC
:102B0C002ED0137C03F00303D9B943F008039908C2
:102B1C00013B11740D2B0BD8DFE803F00D071C07DC
:102B2C000A160D0D160A071C070D5369013B53615C
:102B3C005DF8044B704753695DF8044B01335361E6
:102B4C00704743F00403E0E753695DF8044B023B24
:102B5C005361704753695DF8044B023353617047FE
:102B6C00137C03F003030029D1D043F00403CEE718
:102B7C00D8940020214B9A6CD2E90010D3680968D4
:102B8C00006810B41842946801EA04012ED0137C3A
:102B9C0003F00303D9B943F008039908013B1174FE
:102BAC000D2B0BD8DFE803F00D071C070A160D0DD3
:102BBC00160A071C070D5369013B53615DF8044B62
:102BCC00704753695DF8044B01335361704743F010
:102BDC000403E0E753695DF8044B023B5361704713
:102BEC0053695DF8044B023353617047137C03F057
:102BFC0003030029D1D043F00403CEE7D89400207E
:102C0C00214BDA6CD2E90010D3680968006810B463
:102C1C001842946801EA04012ED0137C03F00303DC
:102C2C00D9B943F008039908013B11740D2B0BD84B
:102C3C00DFE803F00D071C070A160D0D160A071C1A
:102C4C00070D5369013B53615DF8044B70475369A1
:102C5C005DF8044B01335361704743F00403E0E724
:102C6C0053695DF8044B023B5361704753695DF83F
:102C7C00044B023353617047137C03F003030029A8
:102C8C00D1D043F00403CEE7D8940020214B1A6D29
:102C9C00D2E90010D3680968006810B4184294682F
:102CAC0001EA04012ED0137C03F00303D9B943F0DD
:102CBC0008039908013B11740D2B0BD8DFE803F0C6
:102CCC000D071C070A160D0D160A071C070D536974
:102CDC00013B53615DF8044B704753695DF8044B3D
:102CEC0001335361704743F00403E0E753695DF827
:102CFC00044B023B5361704753695DF8044B02333C
:102D0C0053617047137C03F003030029D1D043F0C7
:102D1C000403CEE7D8940020214B5A6DD2E9001061
:102D2C00D3680968006810B41842946801EA040179
:102D3C002ED0137C03F00303D9B943F00803990890
:102D4C00013B11740D2B0BD8DFE803F00D071C07AA
:102D5C000A160D0D160A071C070D5369013B53612A
:102D6C005DF8044B704753695DF8044B01335361B4
:102D7C00704743F00403E0E753695DF8044B023BF2
:102D8C005361704753695DF8044B023353617047CC
:102D9C00137C03F003030029D1D043F00403CEE7E6
:102DAC00D8940020214B9A6DD2E90010D3680968A1
:102DBC00006810B41842946801EA04012ED0137C08
:102DCC0003F00303D9B943F008039908013B1174CC
:102DDC000D2B0BD8DFE803F00D071C070A160D0DA1
:102DEC00160A071C070D5369013B53615DF8044B30
:102DFC00704753695DF8044B01335361704743F0DE
:102E0C000403E0E753695DF8044B023B53617047E0
:102E1C0053695DF8044B023353617047137C03F024
:102E2C0003030029D1D043F00403CEE7D89400204B
:102E3C00214BDA6DD2E90010D3680968006810B430
:102E4C001842946801EA04012ED0137C03F00303AA
:102E5C00D9B943F008039908013B11740D2B0BD819
:102E6C00DFE803F00D071C070A160D0D160A071CE8
:102E7C00070D5369013B53615DF8044B704753696F
:102E8C005DF8044B01335361704743F00403E0E7F2
:102E9C0053695DF8044B023B5361704753695DF80D
:102EAC00044B023353617047137C03F00303002976
:102EBC00D1D043F00403CEE7D8940020214B1A6EF6
:102ECC00D2E90010D3680968006810B418429468FD
:102EDC0001EA04012ED0137C03F00303D9B943F0AB
:102EEC0008039908013B11740D2B0BD8DFE803F094
:102EFC000D071C070A160D0D160A071C070D536942
:102F0C00013B53615DF8044B704753695DF8044B0A
:102F1C0001335361704743F00403E0E753695DF8F4
:102F2C00044B023B5361704753695DF8044B023309
:102F3C0053617047137C03F003030029D1D043F095
:102F4C000403CEE7D8940020214B5A6ED2E900102E
:102F5C00D3680968006810B41842946801EA040147
:102F6C002ED0137C03F00303D9B943F0080399085E
:102F7C00013B11740D2B0BD8DFE803F00D071C0778
:102F8C000A160D0D160A071C070D5369013B5361F8
:102F9C005DF8044B704753695DF8044B0133536182
:102FAC00704743F00403E0E753695DF8044B023BC0
:102FBC005361704753695DF8044B0233536170479A
:102FCC00137C03F003030029D1D043F00403CEE7B4
:102FDC00D8940020214B9A6ED2E90010D36809686E
:102FEC00006810B41842946801EA04012ED0137CD6
:102FFC0003F00303D9B943F008039908013B11749A
:10300C000D2B0BD8DFE803F00D071C070A160D0D6E
:10301C00160A071C070D5369013B53615DF8044BFD
:10302C00704753695DF8044B01335361704743F0AB
:10303C000403E0E753695DF8044B023B53617047AE
:10304C0053695DF8044B023353617047137C03F0F2
:10305C0003030029D1D043F00403CEE7D894002019
:10306C00214BDA6ED2E90010D3680968006810B4FD
:10307C001842946801EA04012ED0137C03F0030378
:10308C00D9B943F008039908013B11740D2B0BD8E7
:10309C00DFE803F00D071C070A160D0D160A071CB6
:1030AC00070D5369013B53615DF8044B704753693D
:1030BC005DF8044B01335361704743F00403E0E7C0
:1030CC0053695DF8044B023B5361704753695DF8DB
:1030DC00044B023353617047137C03F00303002944
:1030EC00D1D043F00403CEE7D8940020214B1A6FC3
:1030FC00D2E90010D3680968006810B418429468CB
:10310C0001EA04012ED0137C03F00303D9B943F078
:10311C0008039908013B11740D2B0BD8DFE803F061
:10312C000D071C070A160D0D160A071C070D53690F
:10313C00013B53615DF8044B704753695DF8044BD8
:10314C0001335361704743F00403E0E753695DF8C2
:10315C00044B023B5361704753695DF8044B0233D7
:10316C0053617047137C03F003030029D1D043F063
:10317C000403CEE7D8940020214B5A6FD2E90010FB
:10318C00D3680968006810B41842946801EA040115
:10319C002ED0137C03F00303D9B943F0080399082C
:1031AC00013B11740D2B0BD8DFE803F00D071C0746
:1031BC000A160D0D160A071C070D5369013B5361C6
:1031CC005DF8044B704753695DF8044B0133536150
:1031DC00704743F00403E0E753695DF8044B023B8E
:1031EC005361704753695DF8044B02335361704768
:1031FC00137C03F003030029D1D043F00403CEE782
:10320C00D8940020214B9A6FD2E90010D36809683A
:10321C00006810B41842946801EA04012ED0137CA3
:10322C0003F00303D9B943F008039908013B117467
:10323C000D2B0BD8DFE803F00D071C070A160D0D3C
:10324C00160A071C070D5369013B53615DF8044BCB
:10325C00704753695DF8044B01335361704743F079
:10326C000403E0E753695DF8044B023B536170477C
:10327C0053695DF8044B023353617047137C03F0C0
:10328C0003030029D1D043F00403CEE7D8940020E7
:10329C00214BDA6FD2E90010D3680968006810B4CA
:1032AC001842946801EA04012ED0137C03F0030346
:1032BC00D9B943F008039908013B11740D2B0BD8B5
:1032CC00DFE803F00D071C070A160D0D160A071C84
:1032DC00070D5369013B53615DF8044B704753690B
:1032EC005DF8044B01335361704743F00403E0E78E
:1032FC0053695DF8044B023B5361704753695DF8A9
:10330C00044B023353617047137C03F00303002911
:10331C00D1D043F00403CEE7D8940020224BD3F84D
:10332C008020D2E90010D3680968006810B41842F4
:10333C00946801EA04012ED0137C03F00303D9B97D
:10334C0043F008039908013B11740D2B0BD8DFE8EF
:10335C0003F00D071C070A160D0D160A071C070DA6
:10336C005369013B53615DF8044B704753695DF839
:10337C00044B01335361704743F00403E0E7536996
:10338C005DF8044B023B5361704753695DF8044B85
:10339C00023353617047137C03F003030029D1D02F
:1033AC0043F00403CEE700BFD8940020224BD3F89F
:1033BC008420D2E90010D3680968006810B4184260
:1033CC00946801EA04012ED0137C03F00303D9B9ED
:1033DC0043F008039908013B11740D2B0BD8DFE85F
:1033EC0003F00D071C070A160D0D160A071C070D16
:1033FC005369013B53615DF8044B704753695DF8A9
:10340C00044B01335361704743F00403E0E7536905
:10341C005DF8044B023B5361704753695DF8044BF4
:10342C00023353617047137C03F003030029D1D09E
:10343C0043F00403CEE700BFD8940020224BD3F80E
:10344C008820D2E90010D3680968006810B41842CB
:10345C00946801EA04012ED0137C03F00303D9B95C
:10346C0043F008039908013B11740D2B0BD8DFE8CE
:10347C0003F00D071C070A160D0D160A071C070D85
:10348C005369013B53615DF8044B704753695DF818
:10349C00044B01335361704743F00403E0E7536975
:1034AC005DF8044B023B5361704753695DF8044B64
:1034BC00023353617047137C03F003030029D1D00E
:1034CC0043F00403CEE700BFD8940020224BD3F87E
:1034DC008C20D2E90010D3680968006810B4184237
:1034EC00946801EA04012ED0137C03F00303D9B9CC
:1034FC0043F008039908013B11740D2B0BD8DFE83E
:10350C0003F00D071C070A160D0D160A071C070DF4
:10351C005369013B53615DF8044B704753695DF887
:10352C00044B01335361704743F00403E0E75369E4
:10353C005DF8044B023B5361704753695DF8044BD3
:10354C00023353617047137C03F003030029D1D07D
:10355C0043F00403CEE700BFD8940020224BD3F8ED
:10356C009020D2E90010D3680968006810B41842A2
:10357C00946801EA04012ED0137C03F00303D9B93B
:10358C0043F008039908013B11740D2B0BD8DFE8AD
:10359C0003F00D071C070A160D0D160A071C070D64
:1035AC005369013B53615DF8044B704753695DF8F7
:1035BC00044B01335361704743F00403E0E7536954
:1035CC005DF8044B023B5361704753695DF8044B43
:1035DC00023353617047137C03F003030029D1D0ED
:1035EC0043F00403CEE700BFD8940020224BD3F85D
:1035FC009420D2E90010D3680968006810B418420E
:10360C00946801EA04012ED0137C03F00303D9B9AA
:10361C0043F008039908013B11740D2B0BD8DFE81C
:10362C0003F00D071C070A160D0D160A071C070DD3
:10363C005369013B53615DF8044B704753695DF866
:10364C00044B01335361704743F00403E0E75369C3
:10365C005DF8044B023B5361704753695DF8044BB2
:10366C00023353617047137C03F003030029D1D05C
:10367C0043F00403CEE700BFD8940020224BD3F8CC
:10368C009820D2E90010D3680968006810B4184279
:10369C00946801EA04012ED0137C03F00303D9B91A
:1036AC0043F008039908013B11740D2B0BD8DFE88C
:1036BC0003F00D071C070A160D0D160A071C070D43
:1036CC005369013B53615DF8044B704753695DF8D6
:1036DC00044B01335361704743F00403E0E7536933
:1036EC005DF8044B023B5361704753695DF8044B22
:1036FC00023353617047137C03F003030029D1D0CC
:10370C0043F00403CEE700BFD8940020224BD3F83B
:10371C009C20D2E90010D3680968006810B41842E4
:10372C00946801EA04012ED0137C03F00303D9B989
:10373C0043F008039908013B11740D2B0BD8DFE8FB
:10374C0003F00D071C070A160D0D160A071C070DB2
:10375C005369013B53615DF8044B704753695DF845
:10376C00044B01335361704743F00403E0E75369A2
:10377C005DF8044B023B5361704753695DF8044B91
:10378C00023353617047137C03F003030029D1D03B
:10379C0043F00403CEE700BFD894002038B52DEDDC
:1037AC00028B02710446154AB0EE408A03610D4645
:1037BC0002600121DDE90632C260D8B2A36002F0DA
:1037CC0061FC0121207B02F05DFC0121207C02F0D8
:1037DC0059FCB5EEC08AF1EE10FA04DDB0EE480AE1
:1037EC00207C02F04DFF284603F03AF8207C0021A3
:1037FC0002F0E0FE2046BDEC028B38BDB00D00207F
:10380C000B4610B5272800F29B81DFE810F09001E1
:10381C0086017D0174016B01620159015001470160
:10382C003E0135012C0123011A0111010801FF0091
:10383C00F600ED00E400DB00D200C900C000B700C8
:10384C00AE00A5009C0093008A00810078006E00F9
:10385C0064005A00500046003C0032002800B94C6D
:10386C000422B9492720C4F89C3002F045FC012001
:10387C0010BDB44C0422B5492620C4F8983002F08F
:10388C003BFC012010BDAF4C0422B1492520C4F8EB
:10389C00943002F031FC012010BDAA4C0422AD4939
:1038AC002420C4F8903002F027FC012010BDA54C58
:1038BC000422A9492320C4F88C3002F01DFC0120FD
:1038CC0010BDA04C0422A5492220C4F8883002F077
:1038DC0013FC012010BD9B4C0422A1492120C4F8EB
:1038EC00843002F009FC012010BD964C04229D4945
:1038FC002020C4F8803002F0FFFB012010BD914C59
:10390C00042299491F20E36702F0F6FB012010BD49
:10391C008C4C042295491E20A36702F0EDFB01207C
:10392C0010BD884C042292491D20636702F0E4FB11
:10393C00012010BD834C04228E491C20236702F009
:10394C00DBFB012010BD7F4C04228B491B20E3665E
:10395C0002F0D2FB012010BD7A4C042287491A20B8
:10396C00A36602F0C9FB012010BD764C04228449E9
:10397C001920636602F0C0FB012010BD714C0422BB
:10398C0080491820236602F0B7FB012010BD6D4C56
:10399C0004227D491720E36502F0AEFB012010BD27
:1039AC00684C042279491620A36502F0A5FB01207E
:1039BC0010BD644C042276491520636502F09CFB13
:1039CC00012010BD5F4C042272491420236502F0C3
:1039DC0093FB012010BD5B4C04226F491320E36460
:1039EC0002F08AFB012010BD564C04226B491220B8
:1039FC00A36402F081FB012010BD524C04226849E3
:103A0C001120636402F078FB012010BD4D4C0422A0
:103A1C0064491020236402F06FFB012010BD494C57
:103A2C00042261490F20E36302F066FB012010BD04
:103A3C00444C04225D490E20A36302F05DFB01207F
:103A4C0010BD404C04225A490D20636302F054FB14
:103A5C00012010BD3B4C042256490C20236302F07C
:103A6C004BFB012010BD374C042253490B20E36261
:103A7C0002F042FB012010BD324C04224F490A20B7
:103A8C00A36202F039FB012010BD2E4C04224C49DC
:103A9C000920636202F030FB012010BD294C042286
:103AAC0048490820236202F027FB012010BD254C59
:103ABC00042245490720E36102F01EFB012010BDE2
:103ACC00204C042241490620A36102F015FB012081
:103ADC0010BD1C4C04223E490520636102F00CFB16
:103AEC00012010BD0422174C3A491046236102F004
:103AFC0003FB012010BD134C042237490320E36063
:103B0C0002F0FAFA012010BD0E4C042233490220B7
:103B1C00A36002F0F1FA012010BD0446094804220A
:103B2C002F494360012002F0E7FA204610BD054CF6
:103B3C0004222C490020236002F0DEFA012010BD83
:103B4C00002010BDD8940020CD1800003D180000B6
:103B5C00AD1700001D1700008D160000FD150000AC
:103B6C006D150000DD14000051140000C513000099
:103B7C0039130000AD120000211200009511000055
:103B8C00091100007D100000F10F0000650F00000E
:103B9C00D90E00004D0E0000C10D0000350D0000C7
:103BAC00A90C00001D0C0000910B0000050B00007F
:103BBC00790A0000ED09000061090000D508000039
:103BCC0049080000BD07000031070000A5060000F1
:103BDC00190600008D0500000105000075040000A9
:103BEC00E90300005D0300002DE9F04182B00446BA
:103BFC000F4616469DF820C01D46BCF1000F01D0A3
:103C0C0017460E460221384602F03CFA0221304695
:103C1C0002F038FA25493B012548DFF89CC051F8E1
:103C2C00038001EB07132560D3F80CE001EB0613BE
:103C3C00C4F80C80C4F814E0DA683301C9580023C6
:103C4C00A26123621B4B45681B682161ACFB033CE2
:103C5C004FF4FA634FEA9C4C03FB0CFC43685B1B70
:103C6C009C45FBD8D8F80030384609681EEA030F8B
:103C7C0014BF012300230A4204F10C0118BF43F0C6
:103C8C00020301912377FFF7BBFD034601993046F0
:103C9C0084F82430FFF7B4FD94F824200346204622
:103CAC00134484F8243002B0BDE8F0816C1000207D
:103CBC00001000E05C29002083DE1B4300000000A4
:103CCC002DE9F04701210D20694C2DED028B84B0BC
:103CDC0002F0D8F967481EF00FFB04F5C07001F034
:103CEC00F1FA04F5C07001F011FBA8B9032401210D
:103CFC000D2002F08BF9962002F00AF90D2000211C
:103D0C0002F084F9962002F003F9013CEFD14FF454
:103D1C007A7002F0FDF8E9E704F28F1001F0D2FAA4
:103D2C0004F28F1001F0F2FA0028DFD0D4F85C31E5
:103D3C00002B4EDD002504F28F169FED4B8B0DF101
:103D4C000E0303AA0DF10A01304601F019FBBDF96F
:103D5C000A3094ED5F1A322002EE103ABDF90C30A5
:103D6C00B7EEC11A013503EE103ABDF90E30B8EEBC
:103D7C00C22B07EE103AB8EEC33BB8EEC77B22EE6F
:103D8C00012B23EE013B27EE017B22EE082B23EEC9
:103D9C00083B27EE087B94ED584B94ED5A5B94ED61
:103DAC005C6B34EE024B35EE035B36EE076B84ED49
:103DBC00584B84ED5A5B84ED5C6B84ED6E2B84ED7B
:103DCC00703B84ED727B02F0A3F8D4F85C319D4219
:103DDC00B5DB07EE903A284E284D40F2EE28B8EEAF
:103DEC00E77ADFF8B0903768DFF8ACA0B7EEC77AA7
:103DFC0094ED585B94ED5A6B94ED5C3B85EE074B60
:103E0C0086EE075B83EE076B84ED584B84ED5A5BB3
:103E1C0084ED5C6B03F0ACFE2B78C3B199F80030E9
:103E2C00DB0714D53368DAF800209B1A0E2B0ED959
:103E3C00134C1448144B154A1549CDE900040120C4
:103E4C0009F08AFE04B0BDEC028BBDE8F087336844
:103E5C002A78DB1B2AB1B3F5FA6FE9D803F088FE98
:103E6C00D8E74345FAD9E3E7399D52A246DF913FA3
:103E7C00E0820020EC900020249C00201D9D00205E
:103E8C00A12E0000952E0000912E00008D2E00001A
:103E9C00602900201C9D0020AC9C002038B5134DDF
:103EAC00134C284606F054FD00210BF06FF9214607
:103EBC00104807F005FC21460F4807F001FC21468D
:103ECC000E4807F0B7FE204607F0F8F90C4808F04A
:103EDC009DFA0C4806F028F9284606F02DFC0D201A
:103EEC00012102F093F8012038BD00BFEC9B0020AB
:103EFC00109B0020289B0020D89900203C9C00207F
:103F0C00A49500204882002070B5C54AC54D1268A2
:103F1C002B689B1AC72B2DED048B88B000F2C08147
:103F2C00C14CC24894ED0A1B94ED026B94ED007BDE
:103F3C00BF4CB7EEC11BF7EEC60BB7EEC70B01F0CB
:103F4C002BFC94F82430CDED050A012B8DED040AE1
:103F5C008DED061ACDED071A40F2EB8172B6266A8A
:103F6C0062B602F029F86368D4ED006AC31A606087
:103F7C00B8EEE66B07EE903AA368A660B8EE677BE6
:103F8C00F61AAC4C9FEDA24B94F8243087EE045BF0
:103F9C0007EE906A012BB8EEE77B87EE064B84EEBA
:103FAC00058BB7EEC88B40F2B18172B6266A62B649
:103FBC0002F002F8636894ED006AC31A6060B8EE10
:103FCC00C66B07EE903AA368A660B8EE677BF61A4C
:103FDC00994C9FED8F4B94F8243087EE045B07EEE1
:103FEC00906A012BB8EEE77B87EE064B84EE057BDF
:103FFC00F7EEC78B40F2768172B6266A62B601F094
:10400C00DBFF63686060C31A07EE903AA368A66092
:10401C00B8EE677BF61A9FED7E6B87EE065B94ED30
:10402C00006A07EE906A854C94F82430B8EEE77B72
:10403C00B8EEC66B012B87EE064B84EE059BB7EEF4
:10404C00C99B40F23B8172B6266A62B601F0B4FF9E
:10405C0063686060F0EE480AC01AA368A66007EEB9
:10406C00900AF61A9DED040AB8EE677B74489FED32
:10407C00686B87EE065B94ED006A07EE906A714EF2
:10408C00B8EEE77BB8EEC66B87EE064B84EE057B8D
:10409C00F7EEC79B01F030FDFDEEC07B337917EED8
:1040AC00904A03B16442002C40F39380307A012192
:1040BC0001F0ACFF307B002101F0A8FF2146307CE1
:1040CC0002F078FAF0EE680A9DED050A5E4E5F4844
:1040DC0001F012FDFDEEC07B337917EE904A03B16F
:1040EC006442002C40F3CE80307A012101F08EFF27
:1040FC00307B002101F08AFF2146307C02F05AFA15
:10410C00F0EE490A9DED060A514E524801F0F4FCBE
:10411C00FDEEC07B337917EE904A03B16442002C5C
:10412C0040F3A280307A012101F070FF307B002136
:10413C0001F06CFF2146307C02F03CFAF0EE690A8B
:10414C009DED070A444E454801F0D6FCFDEEC07BC0
:10415C00337917EE904A03B16442002C48DD307A73
:10416C00012101F053FF307B002101F04FFF21466C
:10417C00307C02F01FFAB0EE480A2C48B0EE491A17
:10418C00F0EE680AF0EE691A01F014FB344A2B6861
:10419C00F0EE411A1168B0EE601A1360F0EE400AAE
:1041AC005B1A8DED010A2F4807EE903A8DED021A3D
:1041BC00CDED031AB8EE677B9FED175B87EE056BB1
:1041CC00B7EEC60B08B0BDEC048BBDE8704001F037
:1041DC00EFBB00F0CB80307A002101F017FF307B71
:1041EC00012101F013FF6142307C02F0E3F969E731
:1041FC0000F0B280307A002101F008FF307B012101
:10420C0001F004FF6142307C02F0D4F9B3E700BF47
:10421C0000000000389C8C410000000000408F40E2
:10422C002C9B0020249C0020588C0020EC99002012
:10423C00309A00206C9A0020A89A0020E49A002062
:10424C00F08500201C9A0020589A0020208600201F
:10425C00949A002050860020D09A0020808600205E
:10426C00309B0020788900207BD0307A002101F02F
:10427C00CDFE307B012101F0C9FE6142307C02F0A1
:10428C0099F95BE777D0307A002101F0BFFE307BE3
:10429C00012101F0BBFE6142307C02F08BF92FE76B
:1042AC0000220023A64C01210D20C4E90023C4E9FF
:1042BC000223C4E90A2301F0A9FE32E672B6226990
:1042CC00E3681B68116862691A40A369194200F01F
:1042DC00DB80237F03F003030AB143F0040343F0B4
:1042EC000803D7E072B62269E3681B68116862693B
:1042FC001A40A369194200F09B80237F03F003034B
:10430C000AB143F0040343F0080397E072B6E36884
:10431C0062691B681A4023691968A36919425BD04A
:10432C00237F03F003030AB143F0040343F00803B3
:10433C0058E072B6D4E9033162691B6809681A4007
:10434C00A36919421CD0237F03F003030AB143F085
:10435C00040343F0080319E02146307C02F02AF9EB
:10436C0009E72146307C02F025F9E7E62146307C4E
:10437C0002F020F9A6E62146307C02F01BF9BFE6DC
:10438C00237F03F003030AB143F004039A08013BB3
:10439C00266A22770D2B3FF6E3AD01A252F823F0EB
:1043AC00CB260000C5260000E3260000C526000031
:1043BC0021210000DD260000CB260000CB260000CA
:1043CC00DD26000021210000C5260000E3260000A8
:1043DC00C5260000CB260000237F03F003030AB19F
:1043EC0043F004039A08013B266A22770D2B3FF613
:1043FC00DEAD01A252F823F0BF260000B926000062
:10440C00D7260000B92600006F210000D12600003D
:10441C00BF260000BF260000D12600006F2100003F
:10442C00B9260000D7260000B9260000BF260000E0
:10443C00237F03F003030AB143F004039A08013B02
:10444C00266A22770D2B3FF6D9AD01A252F823F044
:10445C00B3260000AD260000FB260000AD260000B0
:10446C00BD210000F5260000B3260000B326000095
:10447C00F5260000BD210000AD260000FB26000043
:10448C00AD260000B3260000237F03F003030AB11E
:10449C0043F004039A08013B266A22770D2B3FF662
:1044AC00D4AD01A252F823F0A7260000A1260000EB
:1044BC00EF260000A12600000B220000E9260000D8
:1044CC00A7260000A7260000E92600000B2200000A
:1044DC00A1260000EF260000A1260000A726000060
:1044EC00013E2662B1E501362662AEE5013E26624A
:1044FC0084E50136266281E5013E266257E50136E8
:10450C00266254E5013E26622AE50136266227E53D
:10451C00023E26624BE50236266248E5023E2662E2
:10452C001EE5023626621BE5023E26628DE502364A
:10453C0026628AE5023E266260E5023626625DE569
:10454C00588C0020000000002DE9F047ADF5856D7A
:10455C00994C9A49684601F0BDF94FF4327269469C
:10456C00974801F04DFEBAABB4AA0DF2CE2104F27D
:10457C008F1000F005FFBDF9CE3294ED5F0A01EE0D
:10458C00103ABDF9D032B7EEC00AB8EEC11B03EE3B
:10459C00103ABDF9E832B8EEC33B21EE001B07EE32
:1045AC00103AB8EEC77B23EE003B27EE007B9FED65
:1045BC007C2B94ED584B9FED7C0B21EE021B23EED4
:1045CC00023B27EE027B31EE444B94ED5A5B94EDAB
:1045DC005C6BB4EEC04B33EE455B37EE466BF1EEE5
:1045EC0010FA84ED6E1B84ED703B84ED224B84ED50
:1045FC00727B84ED245B84ED266B07DD9FED6C7B79
:10460C00B4EEC74BF1EE10FA00F1C3809FED667B60
:10461C00B4EEC75BF1EE10FA07DD9FED657BB4EEEF
:10462C00C75BF1EE10FA00F1AF809FED5F7BB4EE4B
:10463C00C76BF1EE10FA0ADD9FED5D7BB4EEC76B34
:10464C00F1EE10FA03D500220023C4E9262394EDE1
:10465C00567ABAAB0DF2CE22B3A9B7EEC77A594847
:10466C00594DDFF87C81DFF8589184ED287B84ED7F
:10467C00307B84ED387B00F063FEBDF9CC3294EDD9
:10468C005E3A0DF5347C05EE103ABDF9CE32B7EE3C
:10469C00C33A94ED524A06EE103ABDF9E832B8EE40
:1046AC00C55BE24607EE103AB8EEC66BB7EEC44AED
:1046BC000DF53A7EB8EEC77B25EE035B774626EE0A
:1046CC00036B27EE037B25EE045B26EE046B27EED3
:1046DC00047B84ED685B84ED6A6B0FCD84ED6C7BA1
:1046EC00ACE80F0095E80300A5F1C8068CE80300C0
:1046FC00BAE80F00AEE80F009CE803008EE8030058
:10470C000FCF94ED557A0FC6B7EEC77A4FF4A0725F
:10471C009EE8030084ED407B86E80300A5F5D47188
:10472C00BAA884ED487B84ED507B01F069FDBAA9F1
:10473C004FF4A072404601F063FD244A2448D2E9AC
:10474C00003100684FF47A72C0184FF0000341F149
:10475C00000113F055FF1F4B4146C9F8000003FB45
:10476C0002F2C8F80000C9F80420C8F8042000229E
:10477C00194806F0FFFF0022494618480DF5856DD3
:10478C00BDE8F04706F0F6BF00220023C4E924235D
:10479C004BE700220023C4E9222337E7AFF3008064
:1047AC00399D52A246DF913F7B14AE47E17A84BF1C
:1047BC007B14AE47E17A843FE082002078890020A8
:1047CC00B08600206084002080840020508C002063
:1047DC00249C002040420F00D8990020289B0020E8
:1047EC00B084002030B108B5FFF78EFBBDE808405F
:1047FC00FFF7AABE704700BF08B501210D2001F0DC
:10480C0005FC962001F084FB00210D2001F0FEFB3D
:10481C00962001F07DFB01210D2001F0F7FB962085
:10482C0001F076FB00210D2001F0F0FB962001F049
:10483C006FFB4FF47A7001F06BFBDEE700000000B9
:10484C0030B5ABB0404C24A808F03AFD0DF1900CFB
:10485C00BCE80F000FC40022DCF8001023463B48D4
:10486C0043F81019114605F01DFF002866D1374B8F
:10487C00374A3849384806F019F800285ED104F058
:10488C0071FF364B02463449354806F0DBF80028F8
:10489C0054D10BF025FA334B02462F49324806F01F
:1048AC00D1F800284AD103F031FA304B02462A499C
:1048BC002F4806F001F9002840D12E4823490090DA
:1048CC002D481FA3D3E9002306F030F9002835D179
:1048DC0002A805F0A1FB882202A9284801F090FC4F
:1048EC00A4F1100302221949244805F0A1FB044647
:1048FC0020BB234B234A1E492048009405F048FC5A
:10490C00E0B91D491D4805F081FCB8B91E4B0A20C1
:10491C001D680AF029FC88B90AF00AFC451B0A46F6
:10492C001A4C4FF00D004FF0010162F10002C4E986
:10493C00005201F06BFB01202BB030BDFFF75CFF88
:10494C00002D31010000000080950020EC9B002020
:10495C0084170020780C0020109B00208C0C002069
:10496C00289B00209C0C0020D8990020A80C00202B
:10497C003C9C0020A5290000A49500204882002022
:10498C0009020000588C0020249C0020508C002030
:10499C0070B53B4D2C78032C07D8DFE804F02C269F
:1049AC000702FFF77BFA00232B7070BD354ED6E95A
:1049BC000023B3F1FF3F08BFB2F1FF3F55D004F025
:1049CC009FFED6E90023801A61EB0301C92871F11F
:1049DC00000138DA2B78022BE7D12B4826A3D3E938
:1049EC000023BDE8704005F02BBEFFF729FF28B36C
:1049FC0002232B7070BD254CD4E90023B3F1FF3F8B
:104A0C0008BFB2F1FF3F2BD004F07AFED4E90023AB
:104A1C00801A61EB030140F2F513984271F1000129
:104A2C00C3DB0121642009F0ADF8B0FA80F0400935
:104A3C00287004F065FEC4E9000170BD2870BDE863
:104A4C007040FFF72BBA0121642009F09BF8002875
:104A5C0018BF03242C7004F053FEC6E90001B9E71B
:104A6C0004F04EFEC4E90001CEE704F049FEC6E9AD
:104A7C000001A4E7AFF3008000E1F50500000000A1
:104A8C00189D0020A023002048820020982300209D
:104A9C0070B50125002440F66A130F220E216B48D5
:104AAC002DED048B88B0DFED6A9A9FED6A9A009524
:104ABC0004AEFFF799F8009440F694130C220B21E6
:104ACC006548FFF791F8009540F64113102211212B
:104ADC006248FFF789F8009440F617130A2209215F
:104AEC005F48FFF781F8152314229FED5E0A0193AE
:104AFC000A212B4600925C4822468DED030AFEF7F4
:104B0C004DFE082306229DED030A0A21019305237D
:104B1C0000922A465548FEF741FE17219DED030AE7
:104B2C0022460194162300910A215148FEF736FEC5
:104B3C0002210322DFED4F8A9FED4F8A04239DED66
:104B4C00030A4E484E4CCDE900212A460A21FEF7B5
:104B5C0025FEF0EE691AB0EE491A4A48F0EE680AE2
:104B6C00B0EE480AB6EE002A00F0B8FFF0EE691A73
:104B7C00B0EE491A4448F0EE680AB0EE480AB6EEB8
:104B8C00002A00F0ABFFF0EE691AB0EE491A3F486C
:104B9C00F0EE680AB0EE480AB6EE002A00F09EFF6E
:104BAC00F0EE691AB0EE491A3948F0EE680AB0EE28
:104BBC00480AB6EE002A00F091FFF2EE080A9FEDCB
:104BCC00352A2946DFED341A4FF496729FED331ACD
:104BDC0004F110059FED320A324800F00DFD324809
:104BEC0000F04CFE314B324A3046324900922822BA
:104BFC00C4F85431C4F858312F4BC4F85C21C4F8B4
:104C0C0048312E4A2E4B2160C4F84C21C4F8503147
:104C1C0095E80E0004F04AFD2A4B96E8070085E85B
:104C2C00070029494FF0625204F5C070C4F87C317A
:104C3C002160C4F8782100F041FB04F28F1008B019
:104C4C00BDEC048BBDE8704000F038BB309A0020FE
:104C5C00CDCC4C3F9A99193F6C9A0020A89A002011
:104C6C00E49A002000409C461C9A0020589A002090
:104C7C00949A002000C07F44002080C4D09A002069
:104C8C00E0820020F0850020208600205086002045
:104C9C0080860020789C223EC520303D9A99314177
:104CAC009A99593FEC99002078890020ACC5273798
:104CBC006C0C0020500D0020C3F51C41CDCCCC3D1C
:104CCC00BD3786352D23FA3B3C0D00200120704763
:104CDC0001207047D0F88C0203685B68184700BF4E
:104CEC0010B5D0F88C0282B00C4619460192009097
:104CFC0000F05AFF019A2146009802B0BDE810401E
:104D0C0000F054BF0020704790F8A32090F8A20048
:104D1C00101A704790F8A23090F8A3209A4205D947
:104D2C005A1C034480F8A220987E70474FF0FF3045
:104D3C00704700BF90F8A23090F8A3209A4202D995
:104D4C001844807E70474FF0FF307047704700BFAB
:104D5C000346B0F8300178B193F82F21882A03D993
:104D6C00012200205A60704702F1010C01201A4404
:104D7C0083F82FC182F8A510704700BF38B5B0F882
:104D8C0030410CB9204638BD90F82F310546C3F19F
:104D9C008904A2420DD8144605F1A50022461844F8
:104DAC0001F02EFA95F82F312046234485F82F3147
:104DBC0038BD01224260EFE738B5002513464FF4A9
:104DCC007A720446C0E901521548882221612946AD
:104DDC00206004F11A00636125732576657615F061
:104DEC007DF88922294604F1A50084F8A25084F8A4
:104DFC00A35084F8A45015F071F8204684F82E5175
:104E0C0084F82F5184F8305184F8315184F83251A0
:104E1C0084F8335184F83451C4E94E5538BD00BF81
:104E2C008C0D00202DE9F04FD0F814A01524017E34
:104E3C008146437E83B00AEB0111384A0AEB031317
:104E4C00374F097A93F8283002EB01150901E8680D
:104E5C0052F8018002EB0311D5F804B01B01CE68A7
:104E6C00D558CBF80040C8F88400D8F804304A680C
:104E7C0003432C490192C8F804301460C5F88460CF
:104E8C006B6833436B60284B4C683A68A3FB023267
:104E9C00920C02EB820252004B681B1B9A42FBD80D
:104EAC004FF0090C1F4ADFF880E0D8F808300342B5
:104EBC0002D0AB6833422FD1C5F88860546839688A
:104ECC00AEFB0131890C01EB810153681B1B99422C
:104EDC00FBD8C5F8846054683968AEFB0131890C85
:104EEC0001EB810153681B1B9942FBD8BCF1010CEF
:104EFC00DBD1604699F81830019A0AEB0313DB6892
:104F0C00CBF8003099F819300AEB031ADAF82C3088
:104F1C00136003B0BDE8F08F0120EBE76C100020AC
:104F2C005C290020001000E083DE1B430E4A10B504
:104F3C001168046905E0DB0107D413685B1A102BB8
:104F4C0008D8636913F0007FF5D14FF4FE430120BC
:104F5C00636110BDFFF766FF0028FAD04FF4FE43E3
:104F6C0001206361F5E700BF249C00202DE9F04788
:104F7C0090F82FA1BAF1000F58D081468846FFF760
:104F8C00D5FF002852D0374E0024376816E06B69E5
:104F9C001A0544D4580558D499044CD43268D21B01
:104FAC00322A48D8544507D9EA6D520704D19B05DB
:104FBC0055D4B8F1000F52D002F0DAFD5445D9F8AF
:104FCC001050E4D8EA6D510702F00703DFD413E068
:104FDC0099F8A5200133022442F48062042B2A663E
:104FEC0027D08A4503F1010309EB01020ED992F88F
:104FFC00A520042B2A66CAD00121002CE8D021461A
:10500C00013301348A4509EB0102F0D8B8F1000FE5
:10501C00BDD04FF400732B666B691A05BAD52B699A
:10502C00042043F440732B61BDE8F0870420BDE8F5
:10503C00F0870124ABE72B694FF40072042043F492
:10504C0040732B612A66BDE8F0872B694FF4007220
:10505C00022043F440732B612A66BDE8F0870020E0
:10506C00E5E700BF249C00202DE9F04782460C4662
:10507C0015461F46FFF75AFF002800F08F8063008B
:10508C000021012DDFF81C81DBB240F2014638BF54
:10509C0001250C461E43D8F80090AAF8A2101EE079
:1050AC009AF8A330872B3DD951690B0557D411F4CD
:1050BC00105F67D1D8F80030A3EB0903322B61D80D
:1050CC009AF8A330AB4208D3022C06D9D36D5807FB
:1050DC0003D18B0547D4002F45D002F049FD022C9B
:1050EC00DAF81020DCD8D36D590703F00700D7D4B9
:1050FC0021466C1E084444F4807441B91666013193
:10510C00431A032B01D80229F7D90C46C8E7012909
:10511C0031D017B14FF4007313669AF8A3300324FF
:10512C00872BC1D8D16D11F4E02FC1F3024EBBD047
:10513C00591C9E441933C9B25FFA8EFE5AFA83F396
:10514C00D2F870C0481C71458AF8A310C1B203F89C
:10515C0001CFA9D08929F3D151690B05A7D51369C2
:10516C0043F440731361D36D13F4E02F05D19AF817
:10517C00A300BDE8F0871466C1E7136943F400731C
:10518C001361F4E713694FF4007143F44073136136
:10519C001166D36D13F4E02FE9D0EEE70420BDE8DF
:1051AC00F08700BF249C0020036970B5D3F814511C
:1051BC00044615F4706201D0C3F81421AE070BD568
:1051CC00D3F8701108043ED50022012084F8A220E7
:1051DC00224484F8A3009176EA0710D594F8306144
:1051EC00F6B194F82E6194F82F21B24227D9721C93
:1051FC00264484F82E2196F8A520C3F86021AB052F
:10520C000DD594F8A30018B1D4F83C3103B19847EC
:10521C000023A4F8A230A4F82E3184F8303170BDEC
:10522C00D4F838210AB190472369002284F82E2142
:10523C00012284F8302194F82F21B242D7D80022D1
:10524C00C3F86021DBE794F8A320872AC4D8501C4C
:10525C00C0B2BDE70148FFF7A7BF00BFEC9000202C
:10526C000148FFF7A1BF00BF2C9200200148FFF7B7
:10527C009BBF00BF6C93002010B5094C0949224616
:10528C000948FFF799FD04F1500208490848FFF757
:10529C0093FD04F1A00207490748FFF78DFD10BDEF
:1052AC00501C006000003F40EC90002000803F400C
:1052BC002C92002000C03F406C93002068230370A8
:1052CC00704700BF30B5012583B004460323009519
:1052DC00002502226B21007800F04EF90095022384
:1052EC0004221B21207800F047F9009504221C2190
:1052FC000223207800F040F92B4606226B212078FF
:10530C0003B0BDE8304000F0FBB800BF30B50B4A2D
:10531C00044683B006231088254675211A46019051
:10532C0015F8010B009500F0CFF86078A0F134006F
:10533C00B0FA80F0400903B030BD00BF2A3600201F
:10534C00F0B516460D4A83B01D4612880346044636
:10535C000F4600923B2113F8010B062200F030F8A7
:10536C00B4F801305BBA3B80B4F803305BBA3380DD
:10537C00B4F805305BBA2B8003B0F0BD2A360020A0
:10538C00F0B516460D4A83B01D46128803460446F6
:10539C000F460092432113F8010B062200F010F87F
:1053AC00B4F801305BBA3B80B4F803305BBA33809D
:1053BC00B4F805305BBA2B8003B0F0BD2A36002060
:1053CC002DE9F04FDFF8FC902DED028B85B0D9F86C
:1053DC0000A0BDF840600192002A6FD01F464FF02C
:1053EC0000084300882A08EE100A08EE901ADBB277
:1053FC00A8BF8822324C45464FF0010B0293039212
:10540C00029B18EE901A204684F830B184F8A5302F
:10541C0084F82FB1FFF79CFC01212046FFF7A6FD75
:10542C00029B18EE101A204684F8A530019B84F8D4
:10543C0030B1A3EB0802012384F82FB1872AD4BF23
:10544C00D2B28822FFF710FE94F8A32094F8A23071
:10545C009A4218D0581C04EB030C2EB1D9F800104A
:10546C00A1EB0A01B1420ED29A4225D99CF81A300E
:10547C0084F8A2007B55691C94F8A32094F8A23000
:10548C004DB29A42E6D1039B9844019B5FFA88F88F
:10549C009845B5D356B1D9F80030A3EB0A03B34203
:1054AC0004D3019B9D42B8BF4FF0FF35284605B091
:1054BC00BDEC028BBDE8F08FFF23DBE7019DE9E734
:1054CC00EC900020249C002030B585B01D46BDF822
:1054DC0024400DF10F03009414460122FFF770FFD6
:1054EC0060B10121621B9DF80F4001FA05F30A44DB
:1054FC00013B934023401341089A137005B030BD13
:10550C002DE9F0411E461A4B84B014461B8801222B
:10551C000546884600930DF10F03FFF751FF012359
:10552C0006B39DF80F60A34046EA0302D6B20127EA
:10553C00104C4146BD40204684F8307184F8A5508B
:10554C0084F82F71FFF704FC31462046FFF700FC6E
:10555C0039462046FFF70AFDB0FA80F0400904B046
:10556C00BDE8F0819DF80F60A34026EA0306DEE754
:10557C002A360020EC9000202DE9F0411C461C4BF3
:10558C0084B015461B8801220646884600930DF10F
:10559C000F039DF82870FFF713FF30B32D1B760017
:1055AC004146013507FA05F3012707FA04F4DBB28B
:1055BC00013CAC409DF80F50234025EA04050D4CEE
:1055CC001D43204684F8A56084F8307184F82F714F
:1055DC00FFF7BEFB29462046FFF7BAFB39462046AB
:1055EC00FFF7C4FCB0FA80F0400904B0BDE8F081CC
:1055FC002A360020EC9000209FED176BB7EEE17A75
:10560C0001700139B5EEC01A80ED022A27EE067B37
:10561C00012906EE902A94BF04230223F1EE10FA1E
:10562C004361B7EEC77B80ED047A10D4B4EE601AF8
:10563C00F1EE10FA30FE811AC1EE207AF8EEE66A2D
:10564C0067EEA67A27EE800A80ED010A70479FED7F
:10565C00041AF1E7AFF30080182D4454FB210940E4
:10566C000000000090ED026AB6EE002BB7EEC13AD6
:10567C00DFED484AB7EEC66A90ED045A20EEA44A14
:10568C0088B020EE240A90ED017A26EE026BC4EE6F
:10569C00055A26EE036BC0EE057AB7EEC66BB5EE77
:1056AC00401A26EE246AF1EE10FAF0EEE54AC6EE48
:1056BC00056AB0EEE74A74EE844AB0EEE66A36EE5E
:1056CC00046A04D1B4EE647AF1EE10FA54D9F5EE12
:1056DC00400AF1EE10FA04D1B4EE467AF1EE10FA6B
:1056EC0051D937EEE56AF1EE471A36EE660AB4EE9A
:1056FC00E10AF1EE10FA3CD4B4EE407AF1EE10FA75
:10570C0048BFB0EE470A37EEA51A71EE260AF4EE42
:10571C00E10AF1EE10FA29D4B4EE607AF1EE10FA47
:10572C0048BFF0EE470A31EE661AB4EEE11AF1EE1C
:10573C0010FA18D4B4EE417AF1EE10FA48BFB0EE7C
:10574C00471A76EE267AF4EEE17AF1EE10FA08D4E6
:10575C00B4EEE77AF1EE10FA54BFF0EE671AF0EE01
:10576C00471A08B07047B0EE611AEAE7F0EE610A2A
:10577C00D9E7B0EE610AC6E787EE246A67EE867A4F
:10578C0065EE865AADE787EE065A67EE857A66EEC9
:10579C00856AA6E700007042037884B0DFED047AD6
:1057AC00012B98BFF0EE670A04B0FFF75BBF00BF98
:1057BC0000000000037830EE207A88B013B337EE87
:1057CC00017AD0ED057A9FED2B6A70EEC00AF8EEE7
:1057DC00E77AD0ED046A37EE217A022BC7EE275A0E
:1057EC0085EE860A20EE260A3ED130EE817A30EE26
:1057FC00C11A37EE617AC7EE275AC5EE860A60EEFB
:10580C00A60A17E09FED1C6A30EEC01AD0ED057A9F
:10581C0037EE067ADFED175AF8EEE77AD0ED046A28
:10582C00F0EE461AF0EE460A87EE276A86EE250A57
:10583C0020EE260A71EE811ADFED0E5A90ED027AF7
:10584C00B6EE004B81EEA75AB7EEC77A27EE047B73
:10585C0085EE256A26EE266AB7EEC66A86EE071B2B
:10586C00B7EEC11B08B0704730EEC11ADFED020A6B
:10587C00E0E700BF0000704200000000F0B587B008
:10588C00002300F10807114A02AD04460092C0F84B
:10589C00C83204F11406C0F8CC32C0F8D032284615
:1058AC0097E80E0003F002FF094B009395E8070000
:1058BC0087E80700284696E80E0003F0F7FE95E807
:1058CC00070086E80700204607B0F0BDF80C002062
:1058DC00000D002010B504464FF4327200F090FC1D
:1058EC00204610BD10B5B7EEC11A0C462DED0A8B33
:1058FC00B6EE00ABB0EE608AB0EE409A21EE0ABB79
:10590C00B7EEC88AB7EEC99A28EE0A8B29EE0A9B25
:10591C00B0EE4B0B11F020FBB0EE407BB0EE4B0B1E
:10592C00F7EEC7BB11F058FBB7EEC0BBB0EE480B9F
:10593C0011F012FBB0EE40CBB0EE480B11F04CFB6B
:10594C00B7EEC08BB0EE490B11F006FBB0EE407B0E
:10595C00B0EE490BB7EECCCBF7EEC78B11F03CFB9E
:10596C006BEE087AF7EEC06B2BEE888A2BEE8C7AF6
:10597C0067EEA65A28EE286A68EEE77A2BEE0CBA88
:10598C0026EEC88AE7EE285AE7EE267AB0EE467A7B
:10599C00ABEE288AABEE267AC4ED005AC4ED017A40
:1059AC0084ED038ABDEC0A8B84ED027A10BD00BF36
:1059BC0010B52DED088B90EDB48A84B0B0EE409A02
:1059CC000446B0EE480AF0EE60AAF0EE418AF0EE22
:1059DC00619A11F045FCB0EE40BAB0EE480A11F0F5
:1059EC003BFB68EEC07A6BEE286A94EDB37AA9EEB5
:1059FC00898A94EDB2AAEBEE2A7ADFED370AE0EE53
:105A0C002A6A69462046B0EE600AB0EE481A84ED68
:105A1C00B48AA7EE89AAA6EE897A84EDB2AAB0EE72
:105A2C00478A84EDB37AFFF75DFFB7EECA1A9DED96
:105A3C00012AB7EEEA6AB7EEC87A9DED023A9DEDFF
:105A4C00034AB7EEC22A9DED005AB7EEC33AB7EE41
:105A5C00C44A0022B7EEC55A00231BA1D1E90001AC
:105A6C0084ED081B84ED0A7BB7EEE81AB7EEE97AF1
:105A7C00C4E91601C4E92401C4E95C0114A1D1E90B
:105A8C000001C4E90C2384ED0E2B84ED103B84ED56
:105A9C00124B84ED145B84ED5E6B84ED601BC4E9EA
:105AAC006223C4E96423C4E9662384ED687BC4E9FA
:105ABC006A01C4E97801C4E9B00104B0BDEC088BFB
:105ACC0010BD00BFAFF30080FCA9F1D24D62503F76
:105ADC002D431CEBE2361A3F0000000080ED000A5B
:105AEC00C0ED010A80ED021AC0ED031A80ED042A04
:105AFC00704700BF0000000070EE600AB5EE400A6F
:105B0C0090ED065BB7EEE04AF1EE10FA90ED0A6B01
:105B1C0034EE055B34EE466B80ED065B80ED086B76
:105B2C000ED1F5EE400AF1EE10FA09D19FED1A7B79
:105B3C00B0EE476BB0EE475B80ED067B80ED087BEB
:105B4C0090ED037A90ED022AB7EEC77A90ED043A05
:105B5C00B7EEC22A90ED000AB7EEC33A27EE057BEA
:105B6C00B7EEC00A80ED0A4BA2EE047BA3EE067BD7
:105B7C00B4EEC70BF1EE10FA0ADC90ED010AB7EEA9
:105B8C00C00AB4EEC70BF1EE10FA58BFB0EE470BDB
:105B9C00704700BFAFF30080000000000000000061
:105BAC0001F042BF01F0DABE816070472DE9F04789
:105BBC00884651B3914662B382460027164C174E65
:105BCC0025680BE001F030FF002810DA01F0D0FF5F
:105BDC002368DAF808205B1B934210D2DAF8003005
:105BEC005B69B342EED0504698470028EEDB013794
:105BFC0008F8010BB945E3D13846BDE8F08701231D
:105C0C0038468AF80C30BDE8F0870F463846BDE8B8
:105C1C00F0871746F0E700BF249C0020613D000090
:105C2C00A249A34B88422DE9F047A24C5E699A69C0
:105C3C00D4F80C801BD9A04B984240F20281C31AB5
:105C4C009E491B0AA1FB031340F22761DB0903EBFE
:105C5C00830303EB830303F2E2438B4228BF0B461F
:105C6C00A3F54877964BA3FB0737FF0804E0954F45
:105C7C00B8428CBF0E2706278D4908F01F09D1F8B2
:105C8C008030B94543F0C003C1F880300CD228F005
:105C9C001F08A1F5F82148EA0708C1F80C800B6829
:105CAC00002BFCDA08F01F0916F0007324D186498A
:105CBC000C698649A14300F0EA8082F48051344695
:105CCC004FF4805514F0605F04D026F060561E43EC
:105CDC00774B5E6111F4405F07D022F44052744957
:105CEC002A438A618B6C1A07FCD446F00076704A02
:105CFC005661936C9B06FCD4754CA04200F2CE808E
:105D0C004FF0010C0146634603FB011203F1010E37
:105D1C000CF10105A24218D8BEF1080F4FF0010397
:105D2C0040F08D80BCF1040F00F291800A18A24261
:105D3C0000F2A48005FB00F1AC4603F1010E03FB5D
:105D4C0001120CF10105A242E6D90CF1FF318C02D3
:105D5C0086EA81215F4810445F4A90427FD9DFF880
:105D6C00A4A16C225D48584DB0FBFEF0D5F800E0C4
:105D7C00B0FBFCF0DFF890C10EEA0C0CD44509D056
:105D8C0042F400524FF4805CC5F800C02A602A68C7
:105D9C00002AFCDA464A156905F007059D4203D036
:105DAC001361936CDD03FCD411F4E05F09D026F48D
:105DBC00E05604F4E0543E4A26435661936C99072E
:105DCC00FCD44749474A014491423CD8464BC90947
:105DDC00A3FB0131090B4B1E1B0286EA030212F4D2
:105DEC00407F06D026F4407603F44073304A3343A8
:105DFC0053612F4A536923F000735361936C9B06D4
:105E0C00FCD43A4B4F45A3FB00234FF0FF324FEA33
:105E1C009343B0FBF1F1B2FBF3F3354A1060354A12
:105E2C001160354A136008D228F01F08214A48EA4D
:105E3C000707D7601368002BFCDABDE8F0877346C0
:105E4C0062E7122718E74FF440730421C5E70CF101
:105E5C00FF31204807238C02104486EA8121274A0F
:105E6C00DFF8A8A0A2FB0020020D2548362A38BF77
:105E7C00362202FB00F042EA0A0A74E74FEA8C244D
:105E8C00002386EA8C214FF0010EAC4662E71D46DA
:105E9C0086F0C05411464FF0C05313E700244FF066
:105EAC00010C024631462346E64653E700A4781F10
:105EBC0000C00F40000008400046C32323B24C0032
:105ECC001F85EB5100366E0100800D404030008084
:105EDC00FFB19F26808D5B00FF7EF64D00643F4D29
:105EEC007FD1F0087F17B42C9F10E50083DE1B4395
:105EFC005C29002058290020A89B0020819F5E1659
:105F0C00001BB7006C2000807F30018000200080D7
:105F1C0000B970472DE9F84F01218146214C224DE3
:105F2C00224E54E8003F2A68306844E80013002BE6
:105F3C00F7D11F494B684FF47A7BDFF878A01B1A16
:105F4C0001270BFB02F8DAF80020A3FB02325A45BA
:105F5C0094BF9044D84454E8003F2A68306844E821
:105F6C000073002BF7D14B68DAF800C01B1A0BFB3F
:105F7C0002F2A3FB0C3CBCF57A7F94BF624402F5A1
:105F8C007A72A2EB0802B2F57A7F06D3B9F1010955
:105F9C0008F57A78DFD1BDE8F88F01F0E9FD044906
:105FAC00D9E700BF289C0020249C0020209C0020C6
:105FBC00001000E0A89B002030B40F4B4FF0010CF8
:105FCC000E4D0F4C53E8002F2868216843E800C29F
:105FDC00002AF7D10B4B5B680B4A5B1A4FF47A71B2
:105FEC00126801FB00F0A3FB023230BC8A4294BF62
:105FFC0080184018704700BF289C0020249C00206B
:10600C00209C0020001000E0A89B0020272816D818
:10601C000201104B03EB00109B5810B4C2685C6873
:10602C00144205D061B95DF8044BC3F88820704761
:10603C00836851B1084A5DF8044B1A607047704789
:10604C005DF8044BC3F884207047044A5DF8044B98
:10605C001A6070476C10002038F0010038300100D5
:10606C0027280BD8064B020103EB00109A58C36883
:10607C0092681A4214BF012000207047002070471C
:10608C006C100020272829D8164B0201012903EB9C
:10609C0000109A5810B45368C4680ED004290CD060
:1060AC0023EA040353608368A9B1022917D003299A
:1060BC000CBF0D4A0D4A1A6007E0234301295360B7
:1060CC00836808D040F638021A60436815225DF8E0
:1060DC00044B1A60704738221A60F6E77047044A7E
:1060EC001A60F2E76C100020383001003800010013
:1060FC0038F00100704700BF272852D80001F0B4D7
:10610C00314C324D2358AB4250D043D8B3F1844F6D
:10611C0045D0A5F58045AB423AD12D4D04442D4ECA
:10612C002D486768C0F8B462E0684FF0E0244FF087
:10613C000056042AC4F810612AD85C6924EA0004C9
:10614C005C614FF005043C605C6824EA00045C6010
:10615C00224C54F8224090FAA0F2B2FA82F245F89E
:10616C0022106FEA00011DD0DD690F2A01EA05013A
:10617C00D9611DDC52000325D968944005FA02F25E
:10618C0021EA02022243DA6098615A6902435A6199
:10619C00F0BC7047124DAB42FAD1124DBEE7124D16
:1061AC00BCE77047DA690243DA61EDE70F4DB5E7FA
:1061BC00103A032519695200944005FA02F221EABB
:1061CC00020222431A61DFE76C10002000800042BB
:1061DC00203100202100000000380020380C002065
:1061EC0000C0004220320020A0300020A03100204E
:1061FC0008B5FDF765FDFEF7CBFB01F0B9FCFAE73E
:10620C00844641EA000313F003036DD1403A41D3B5
:10621C0051F8043B40F8043B51F8043B40F8043B74
:10622C0051F8043B40F8043B51F8043B40F8043B64
:10623C0051F8043B40F8043B51F8043B40F8043B54
:10624C0051F8043B40F8043B51F8043B40F8043B44
:10625C0051F8043B40F8043B51F8043B40F8043B34
:10626C0051F8043B40F8043B51F8043B40F8043B24
:10627C0051F8043B40F8043B51F8043B40F8043B14
:10628C0051F8043B40F8043B51F8043B40F8043B04
:10629C00403ABDD2303211D351F8043B40F8043BA4
:1062AC0051F8043B40F8043B51F8043B40F8043BE4
:1062BC0051F8043B40F8043B103AEDD20C3205D3B4
:1062CC0051F8043B40F8043B043AF9D2043208D0AC
:1062DC00D2071CBF11F8013B00F8013B01D30B881E
:1062EC0003806046704700BF082A13D38B078DD0FC
:1062FC0010F003038AD0C3F10403D21ADB071CBFCE
:10630C0011F8013B00F8013B80D331F8023B20F837
:10631C00023B7BE7043AD9D3013A11F8013B00F870
:10632C00013BF9D20B7803704B7843708B788370F8
:10633C006046704701F1FF3C70B56646002400E0F2
:10634C000134B0FBF2F502FB1503092B03F1370EF8
:10635C0003F130035FFA8EFE98BF5FFA83FE904222
:10636C00284606F801EFEBD2631C0022C818CA5469
:10637C007CB162461CF8015F10F8016DA1EB0C03B7
:10638C0002328CF80060013B521A057023449A4289
:10639C00EFDB084670BD00BF4FF0010C0CFA01FC9E
:1063AC0001EB410100EB411170B5B1F80EE01FFAA1
:1063BC008CF5254C1FFA8EFE24782E010EFB033330
:1063CC0006F0F006E340B0F888417345A4B228BF4C
:1063DC0073463443012AA0F888410DD0022A28D0F4
:1063EC00C2B10CF00F02B0F888C11FFA8CFC4CEA59
:1063FC00020CA0F888C170BD9BB20CF00F022D02EC
:10640C00CB82B0F8803105F470659BB22B43A0F8B9
:10641C008031E8E7AEEB030E0CF00F021FFA8EFE94
:10642C00A1F80AE0B0F880319BB21343A0F8803198
:10643C00D9E79BB20CF00F02CB83B0F880319BB242
:10644C001E43A0F88061CEE72C36002001EB4103FF
:10645C00F6EE006A00EB4313B3F80EC0314B1FFA93
:10646C008CFC93ED007AB8EE477A70B5C7EE007AE3
:10647C004FF0010E4E000EFA01FE1FFA8EF577EE6C
:10648C00A67AFCEEE77A17EE903AB3F5803F46D346
:10649C0000224FF6FF745B080132A34201D9062A91
:1064AC00F9D9120142F4806292B2022B4FF6FF74BA
:1064BC004FEA0515314438BF02230EF00F0EEDB232
:1064CC00A34200EB411128BF2346B0F88841A4B287
:1064DC002C43A0F88841CA805A1E92B2CA814A89BC
:1064EC0092B203FB02F2B2FBFCF292B24A81CA8A6C
:1064FC0092B203FB02F2B2FBFCF292B2CA82CA8BDA
:10650C0092B202FB03F3B3FBFCF39BB2CB83B0F868
:10651C0088319BB243EA0E03A0F8883170BD4FF46A
:10652C008062C2E758290020214BF6EE006A4FF634
:10653C00FE7C93ED007AB8EE477AC7EE007A77EEE0
:10654C00A67AFCEEE77A17EE903A63452CD9002236
:10655C005B080132634501D9062AF9D9083242F2A7
:10656C00260C4CEA422C1FFA8CFC022B00EB41113E
:10657C004FF6FE7038BF02230A8A834292B228BFBC
:10658C000346C88880B2C0F10110104403FB02F22C
:10659C00B2FBF0F29B1A92B2C3F101039BB2CB8017
:1065AC000A82A1F80CC0704743F2260CDDE700BF4D
:1065BC005829002027284BD8F8B52A4D044615F841
:1065CC00202005EB8005012A2DD0022A3FD16B78C3
:1065DC00C3F3011003283ED0234A02EB803203F0B0
:1065EC00030C224889B2634602EB4C1C0678BCF8BB
:1065FC0006E05801BCF810301FFA8EFECEF1011ED9
:10660C001EFA83F303F1FF3E0EFB01F1F1408E45C0
:10661C0023D95B1AC3F101039BB289B20244ACF8D3
:10662C00063011820DE06A78C2F30113032B10D0EF
:10663C000F4800EB83308BB202F00301AA78FFF70E
:10664C00ABFE0C4BEA7803EB04135B681A60F8BDE5
:10665C0070470948EFE7094AC1E7991E4FF6FF73E7
:10666C00DBE700BF4814002000C01D402C36002082
:10667C0000C03D406C10002000803E4000801E4059
:10668C00272808D8154B13F8202003EB8003012A88
:10669C0002D0022A0DD070475978C1F30112032A97
:1066AC0013D00F4801F0030100EB82309A78FFF70A
:1066BC00CDBE5978C1F30113032B0CD0094800EB64
:1066CC00833001F00301FFF72FBF074801F00301EE
:1066DC009A78FFF7BBBE0548F3E700BF48140020CB
:1066EC0000C03D4000C01D4000803E4000801E4068
:1066FC0000230F2248F2B82C194610B54FF4704401
:10670C004FF4806EA0F88C414FF46044A0F88E21B9
:10671C000A46A0F89031B0F888319BB243F0F003F0
:10672C00A0F8883101EB4103013100EB431304293C
:10673C009C80A3F806E05A841A865A805A81A3F8E2
:10674C000EC05A82DA825A83DA83EBD1B0F88831E0
:10675C009BB243F00F03A0F88831B0F888319BB29C
:10676C0043F47063A0F8883110BD00BF374B384A32
:10677C00996F384841F47F0170B5996741F2010671
:10678C00D3F8801045F6C05543F226040A43C3F8EB
:10679C008020FFF7ADFF00F58040FFF7A9FF00F563
:1067AC008040FFF7A5FF00F58040FFF7A1FF002216
:1067BC00A0F503104FF00F0E114600EB42134FEAF9
:1067CC00421C01329981042A5981A3F80EE09E8261
:1067DC00DD8020F80C1019829C81EED100221E481D
:1067EC004FF00F0E41F20106114645F6C05543F22B
:1067FC00260400EB42134FEA421C01329981042A11
:10680C005981A3F80EE09E82DD8020F80C101982CD
:10681C009C81EED1002211480F2641F20105114650
:10682C0045F6C05443F2260E00EB42134FEA421CCD
:10683C0001329981042A5981DE819D82DC8020F805
:10684C000C101982A3F80CE0EED170BD00C00F4003
:10685C00000003FC00C03D4000001E4000401E40F4
:10686C0010280346044A28BF10231078012B38BF88
:10687C0001231370704700BF2C36002072B6EFF363
:10688C0005834F4CC4F88430EFF308824FF0E023BB
:10689C004C4E4D4DD3F8280DD3F82C1DC4E92201D4
:1068AC00D3F8341DD3F8383DC4E924139369C4F8E4
:1068BC009830D369C4F89C3000F0D4F884ED280AE1
:1068CC0001F010FA0B214FF0FF32C4F8A4000B4674
:1068DC00C4F880103D49301D5A40202402F00103B9
:1068EC00013C01FB03F383EA5202F7D1A84202D028
:1068FC0073680646EFE7324BC3F8A820BFF34F8FFF
:10690C004FF0E0232F49324AC3F8701FC3F8702FA1
:10691C00BFF34F8FBFF36F8F2E4A02252E48D36ED5
:10692C002E4943F44053D3660560D3692C4823F0B9
:10693C007F0343F04003D3610B6883423DD8264D5F
:10694C0000214FF0E0234FF0FF3229600126C5F8FB
:10695C0008112449C5F80011C5F80861C3F8802155
:10696C00C3F88421C3F88821C3F88C21C3F8902183
:10697C0001E000F069F9D5F80C31002BF9D00134A5
:10698C00C5F80C614F2CF4D9174B022017494FF066
:10699C000042C1F840015A63D5F80C313BB9144898
:1069AC0014490D4A0163D2F80C31002BFAD04FF088
:1069BC00E023114AC3F80C2DFEE7FFF731F9BEE7CF
:1069CC0000FF272080FF2720A8FF27202083B8ED79
:1069DC00A0FF272000C00F40004008405C29002089
:1069EC00803DCD0B009F240000900D4000002E40F8
:1069FC0000800F40F100AD0B0400FA050A490A684B
:106A0C0038B108B513180948834204D810460B60F6
:106A1C0008BD1046704714F075FB0C234FF0FF3285
:106A2C000360104608BD00BF302A0020000028205B
:106A3C00002070474FF0FF30704700BF4FF40053F9
:106A4C0000204B60704700BF012070474FF0FF30B3
:106A5C00704700BF30BFFDE730BFFDE730BFFDE73B
:106A6C00FFF70CBF124AD2F880305B07FBD5D2F887
:106A7C0080301048C3F30B230F4990ED007A07EEDA
:106A8C00903A91ED006AB8EE477A0C4AF8EEE77A44
:106A9C000B4BD2ED006A77EEC77A93ED007AB8EE25
:106AAC00477A67EE867A87EEA60A37EE400A704779
:106ABC0000810D40989B0020A09B0020A49B0020EF
:106ACC009C9B0020836BF0B41BB1536843F40043D0
:106ADC00536072B6446B3CB31A4B2260D3F8B0418E
:106AEC000C421DD1184E776804E07468E41BB4F5B1
:106AFC00166F0BD2D3F8404144F48044C3F84041A4
:106B0C00D3F8B851D3F840416404EED50D4007D109
:106B1C000C4CC0E90225D4F8B0310B43C4F8B031A9
:106B2C00426362B6F0BC7047064DC0E90224D5F84A
:106B3C00B0310B43C5F8B0310263426362B6F0BCAE
:106B4C00704700BF00002E40001000E070B5056BD0
:106B5C009DB106462A46002403E012680134012A3E
:106B6C000CD0536813F08003F7D032632CB1284655
:106B7C00B36B2D689847013CF9D170BDC6E90C3355
:106B8C00F4E700BF30B4D9B91F4C204B0021204A88
:106B9C0001254FF0011099601D60C4E90231802479
:106BAC005C60C2F8BC01D2F8B0311A482B43C2F871
:106BBC00B0310160D2F8B031002BFBD130BC704742
:106BCC000904154B104C012541F080019860104AC6
:106BDC00596000F580511D60D96000F50051A36427
:106BEC00196100F5405100F5804059610021986110
:106BFC00E164D2F8B03143F48033C2F8B031D2F84A
:106C0C00B031002BFBD1C0E700000020C03A0020BF
:106C1C0000002E4080990020E03A00200849012213
:106C2C000B7802FA00F023EA0000087030B9054A2C
:106C3C00D2F8483123F08003C2F84831704700BFC6
